{
  "contractName": "NRG",
  "abi": [
    {
      "constant": false,
      "inputs": [
        {
          "name": "_CPU",
          "type": "uint8"
        },
        {
          "name": "_energyRemaining",
          "type": "uint16"
        },
        {
          "name": "_totalEP",
          "type": "uint16"
        },
        {
          "name": "_storageCapacity",
          "type": "uint16"
        },
        {
          "name": "_productionCapacity",
          "type": "uint16"
        }
      ],
      "name": "addProducer",
      "outputs": [],
      "payable": false,
      "stateMutability": "nonpayable",
      "type": "function"
    },
    {
      "constant": false,
      "inputs": [
        {
          "name": "_unitsOfEnergyRequested",
          "type": "uint16"
        },
        {
          "name": "_addr",
          "type": "address"
        }
      ],
      "name": "demandEnergy",
      "outputs": [],
      "payable": false,
      "stateMutability": "nonpayable",
      "type": "function"
    },
    {
      "constant": true,
      "inputs": [
        {
          "name": "_addr",
          "type": "address"
        }
      ],
      "name": "getRemainingEnergy",
      "outputs": [
        {
          "name": "",
          "type": "uint16"
        }
      ],
      "payable": false,
      "stateMutability": "view",
      "type": "function"
    },
    {
      "constant": false,
      "inputs": [
        {
          "name": "_energy",
          "type": "uint16"
        }
      ],
      "name": "produceEnergy",
      "outputs": [],
      "payable": false,
      "stateMutability": "nonpayable",
      "type": "function"
    },
    {
      "constant": true,
      "inputs": [
        {
          "name": "",
          "type": "address"
        }
      ],
      "name": "Entity",
      "outputs": [
        {
          "name": "",
          "type": "uint8"
        }
      ],
      "payable": false,
      "stateMutability": "view",
      "type": "function"
    },
    {
      "constant": true,
      "inputs": [],
      "name": "checkMoneyCPUEnergyBalance",
      "outputs": [
        {
          "name": "",
          "type": "uint32"
        },
        {
          "name": "",
          "type": "uint8"
        },
        {
          "name": "",
          "type": "uint16"
        }
      ],
      "payable": false,
      "stateMutability": "view",
      "type": "function"
    },
    {
      "constant": false,
      "inputs": [
        {
          "name": "_uintsOfEnergyConsumed",
          "type": "uint16"
        }
      ],
      "name": "consumeEnergy",
      "outputs": [],
      "payable": false,
      "stateMutability": "nonpayable",
      "type": "function"
    },
    {
      "constant": true,
      "inputs": [
        {
          "name": "_addr",
          "type": "address"
        }
      ],
      "name": "getStorageCapacity",
      "outputs": [
        {
          "name": "",
          "type": "uint16"
        }
      ],
      "payable": false,
      "stateMutability": "view",
      "type": "function"
    },
    {
      "constant": false,
      "inputs": [
        {
          "name": "_amnt",
          "type": "uint32"
        }
      ],
      "name": "addMoneyToAccount",
      "outputs": [],
      "payable": false,
      "stateMutability": "nonpayable",
      "type": "function"
    },
    {
      "constant": false,
      "inputs": [
        {
          "name": "_clusterNumber",
          "type": "uint8"
        },
        {
          "name": "_CPU",
          "type": "uint8"
        },
        {
          "name": "_energyRemaining",
          "type": "uint16"
        },
        {
          "name": "_storageCapacity",
          "type": "uint16"
        }
      ],
      "name": "addProvider",
      "outputs": [],
      "payable": false,
      "stateMutability": "nonpayable",
      "type": "function"
    },
    {
      "constant": false,
      "inputs": [
        {
          "name": "_CPU",
          "type": "uint8"
        },
        {
          "name": "_clusterNumber",
          "type": "uint8"
        },
        {
          "name": "_energyRemaining",
          "type": "uint16"
        },
        {
          "name": "_productionCapacity",
          "type": "uint16"
        },
        {
          "name": "_totalEP",
          "type": "uint16"
        },
        {
          "name": "_TotalEC",
          "type": "uint16"
        },
        {
          "name": "_storageCapacity",
          "type": "uint16"
        }
      ],
      "name": "addConsumer",
      "outputs": [],
      "payable": false,
      "stateMutability": "nonpayable",
      "type": "function"
    },
    {
      "constant": false,
      "inputs": [
        {
          "name": "_price",
          "type": "uint8"
        }
      ],
      "name": "setCPU",
      "outputs": [],
      "payable": false,
      "stateMutability": "nonpayable",
      "type": "function"
    },
    {
      "constant": true,
      "inputs": [
        {
          "name": "_addr",
          "type": "address"
        }
      ],
      "name": "getCPU",
      "outputs": [
        {
          "name": "",
          "type": "uint8"
        }
      ],
      "payable": false,
      "stateMutability": "view",
      "type": "function"
    },
    {
      "constant": false,
      "inputs": [
        {
          "name": "_unitsOfEnergyToBeSent",
          "type": "uint16"
        },
        {
          "name": "_addr",
          "type": "address"
        }
      ],
      "name": "sendEnergyTo",
      "outputs": [],
      "payable": false,
      "stateMutability": "nonpayable",
      "type": "function"
    },
    {
      "constant": true,
      "inputs": [],
      "name": "getEntity",
      "outputs": [
        {
          "name": "",
          "type": "uint8"
        }
      ],
      "payable": false,
      "stateMutability": "view",
      "type": "function"
    },
    {
      "anonymous": false,
      "inputs": [
        {
          "indexed": false,
          "name": "from",
          "type": "address"
        },
        {
          "indexed": false,
          "name": "to",
          "type": "address"
        },
        {
          "indexed": false,
          "name": "energy",
          "type": "uint256"
        }
      ],
      "name": "EnergySent",
      "type": "event"
    },
    {
      "anonymous": false,
      "inputs": [
        {
          "indexed": false,
          "name": "from",
          "type": "address"
        },
        {
          "indexed": false,
          "name": "to",
          "type": "address"
        },
        {
          "indexed": false,
          "name": "energy",
          "type": "uint256"
        }
      ],
      "name": "EnergyDemanded",
      "type": "event"
    },
    {
      "anonymous": false,
      "inputs": [
        {
          "indexed": false,
          "name": "energy",
          "type": "uint256"
        }
      ],
      "name": "EnergyProduced",
      "type": "event"
    }
  ],
  "bytecode": "0x6060604052341561000f57600080fd5b6148468061001e6000396000f3006060604052600436106100db576000357c0100000000000000000000000000000000000000000000000000000000900463ffffffff168063306265b4146100e057806345b1ca0c1461013a57806347164a56146101805780634b9b38ed146101d557806352d3162c146101fc578063540068821461024f578063759f5e39146102a057806393a0ff48146102c75780639f6964dd1461031c578063a4ac1a4d14610345578063ad15707114610391578063d06c780f14610404578063e672379d1461042a578063f2d1eb331461047d578063ff200d2b146104c3575b600080fd5b34156100eb57600080fd5b610138600480803560ff1690602001909190803561ffff1690602001909190803561ffff1690602001909190803561ffff1690602001909190803561ffff169060200190919050506104f2565b005b341561014557600080fd5b61017e600480803561ffff1690602001909190803573ffffffffffffffffffffffffffffffffffffffff1690602001909190505061070f565b005b341561018b57600080fd5b6101b7600480803573ffffffffffffffffffffffffffffffffffffffff1690602001909190505061167c565b604051808261ffff1661ffff16815260200191505060405180910390f35b34156101e057600080fd5b6101fa600480803561ffff16906020019091905050611836565b005b341561020757600080fd5b610233600480803573ffffffffffffffffffffffffffffffffffffffff16906020019091905050611ffa565b604051808260ff1660ff16815260200191505060405180910390f35b341561025a57600080fd5b61026261201a565b604051808463ffffffff1663ffffffff1681526020018360ff1660ff1681526020018261ffff1661ffff168152602001935050505060405180910390f35b34156102ab57600080fd5b6102c5600480803561ffff169060200190919050506123ca565b005b34156102d257600080fd5b6102fe600480803573ffffffffffffffffffffffffffffffffffffffff1690602001909190505061250a565b604051808261ffff1661ffff16815260200191505060405180910390f35b341561032757600080fd5b610343600480803563ffffffff169060200190919050506126c4565b005b341561035057600080fd5b61038f600480803560ff1690602001909190803560ff1690602001909190803561ffff1690602001909190803561ffff169060200190919050506128e4565b005b341561039c57600080fd5b610402600480803560ff1690602001909190803560ff1690602001909190803561ffff1690602001909190803561ffff1690602001909190803561ffff1690602001909190803561ffff1690602001909190803561ffff16906020019091905050612ad1565b005b341561040f57600080fd5b610428600480803560ff16906020019091905050612d48565b005b341561043557600080fd5b610461600480803573ffffffffffffffffffffffffffffffffffffffff16906020019091905050612f76565b604051808260ff1660ff16815260200191505060405180910390f35b341561048857600080fd5b6104c1600480803561ffff1690602001909190803573ffffffffffffffffffffffffffffffffffffffff1690602001909190505061312d565b005b34156104ce57600080fd5b6104d66147c6565b604051808260ff1660ff16815260200191505060405180910390f35b336000600360008373ffffffffffffffffffffffffffffffffffffffff1673ffffffffffffffffffffffffffffffffffffffff16815260200190815260200160002060009054906101000a900460ff1660ff1614151561055157600080fd5b60c0604051908101604052808760ff1681526020018661ffff1681526020018561ffff1681526020018461ffff1681526020018361ffff168152602001600063ffffffff168152506000803373ffffffffffffffffffffffffffffffffffffffff1673ffffffffffffffffffffffffffffffffffffffff16815260200190815260200160002060008201518160000160006101000a81548160ff021916908360ff16021790555060208201518160000160016101000a81548161ffff021916908361ffff16021790555060408201518160000160036101000a81548161ffff021916908361ffff16021790555060608201518160000160056101000a81548161ffff021916908361ffff16021790555060808201518160000160076101000a81548161ffff021916908361ffff16021790555060a08201518160000160096101000a81548163ffffffff021916908363ffffffff1602179055509050506001600360003373ffffffffffffffffffffffffffffffffffffffff1673ffffffffffffffffffffffffffffffffffffffff16815260200190815260200160002060006101000a81548160ff021916908360ff160217905550505050505050565b6000806000600360003373ffffffffffffffffffffffffffffffffffffffff1673ffffffffffffffffffffffffffffffffffffffff16815260200190815260200160002060009054906101000a900460ff1660ff161415806107c157506001600360003373ffffffffffffffffffffffffffffffffffffffff1673ffffffffffffffffffffffffffffffffffffffff16815260200190815260200160002060009054906101000a900460ff1660ff1614155b15156107cc57600080fd5b6002600360003373ffffffffffffffffffffffffffffffffffffffff1673ffffffffffffffffffffffffffffffffffffffff16815260200190815260200160002060009054906101000a900460ff1660ff161415610f4c57600160003373ffffffffffffffffffffffffffffffffffffffff1673ffffffffffffffffffffffffffffffffffffffff16815260200190815260200160002060000160029054906101000a900461ffff16600160003373ffffffffffffffffffffffffffffffffffffffff1673ffffffffffffffffffffffffffffffffffffffff16815260200190815260200160002060000160049054906101000a900461ffff160390508361ffff168161ffff161015610c1257806000808573ffffffffffffffffffffffffffffffffffffffff1673ffffffffffffffffffffffffffffffffffffffff16815260200190815260200160002060000160009054906101000a900460ff1660ff160261ffff1691508163ffffffff16600160003373ffffffffffffffffffffffffffffffffffffffff1673ffffffffffffffffffffffffffffffffffffffff16815260200190815260200160002060000160069054906101000a900463ffffffff1663ffffffff16101515156109a057600080fd5b80600160003373ffffffffffffffffffffffffffffffffffffffff1673ffffffffffffffffffffffffffffffffffffffff16815260200190815260200160002060000160028282829054906101000a900461ffff160192506101000a81548161ffff021916908361ffff160217905550806000803373ffffffffffffffffffffffffffffffffffffffff1673ffffffffffffffffffffffffffffffffffffffff16815260200190815260200160002060000160018282829054906101000a900461ffff160392506101000a81548161ffff021916908361ffff160217905550816000808573ffffffffffffffffffffffffffffffffffffffff1673ffffffffffffffffffffffffffffffffffffffff16815260200190815260200160002060000160098282829054906101000a900463ffffffff160192506101000a81548163ffffffff021916908363ffffffff16021790555081600160003373ffffffffffffffffffffffffffffffffffffffff1673ffffffffffffffffffffffffffffffffffffffff16815260200190815260200160002060000160068282829054906101000a900463ffffffff160392506101000a81548163ffffffff021916908363ffffffff1602179055507fe408811386c6fbfd3c9c19b192ec8fb497be593a73e974bb107e4978cc6376ea338486604051808473ffffffffffffffffffffffffffffffffffffffff1673ffffffffffffffffffffffffffffffffffffffff1681526020018373ffffffffffffffffffffffffffffffffffffffff1673ffffffffffffffffffffffffffffffffffffffff1681526020018261ffff168152602001935050505060405180910390a1610f47565b836000808573ffffffffffffffffffffffffffffffffffffffff1673ffffffffffffffffffffffffffffffffffffffff16815260200190815260200160002060000160009054906101000a900460ff1660ff160261ffff1691508163ffffffff16600160003373ffffffffffffffffffffffffffffffffffffffff1673ffffffffffffffffffffffffffffffffffffffff16815260200190815260200160002060000160069054906101000a900463ffffffff1663ffffffff1610151515610cd957600080fd5b83600160003373ffffffffffffffffffffffffffffffffffffffff1673ffffffffffffffffffffffffffffffffffffffff16815260200190815260200160002060000160028282829054906101000a900461ffff160192506101000a81548161ffff021916908361ffff160217905550836000808573ffffffffffffffffffffffffffffffffffffffff1673ffffffffffffffffffffffffffffffffffffffff16815260200190815260200160002060000160018282829054906101000a900461ffff160392506101000a81548161ffff021916908361ffff16021790555081600160003373ffffffffffffffffffffffffffffffffffffffff1673ffffffffffffffffffffffffffffffffffffffff16815260200190815260200160002060000160068282829054906101000a900463ffffffff160392506101000a81548163ffffffff021916908363ffffffff160217905550816000808573ffffffffffffffffffffffffffffffffffffffff1673ffffffffffffffffffffffffffffffffffffffff16815260200190815260200160002060000160098282829054906101000a900463ffffffff160192506101000a81548163ffffffff021916908363ffffffff1602179055507fe408811386c6fbfd3c9c19b192ec8fb497be593a73e974bb107e4978cc6376ea338486604051808473ffffffffffffffffffffffffffffffffffffffff1673ffffffffffffffffffffffffffffffffffffffff1681526020018373ffffffffffffffffffffffffffffffffffffffff1673ffffffffffffffffffffffffffffffffffffffff1681526020018261ffff168152602001935050505060405180910390a15b611676565b600260003373ffffffffffffffffffffffffffffffffffffffff1673ffffffffffffffffffffffffffffffffffffffff16815260200190815260200160002060000160029054906101000a900461ffff16600260003373ffffffffffffffffffffffffffffffffffffffff1673ffffffffffffffffffffffffffffffffffffffff168152602001908152602001600020600001600a9054906101000a900461ffff160390508361ffff168161ffff16101561133d5780600160008573ffffffffffffffffffffffffffffffffffffffff1673ffffffffffffffffffffffffffffffffffffffff16815260200190815260200160002060000160019054906101000a900460ff1660ff160261ffff1691508163ffffffff16600260003373ffffffffffffffffffffffffffffffffffffffff1673ffffffffffffffffffffffffffffffffffffffff168152602001908152602001600020600001600c9054906101000a900463ffffffff1663ffffffff16101515156110c957600080fd5b80600260003373ffffffffffffffffffffffffffffffffffffffff1673ffffffffffffffffffffffffffffffffffffffff16815260200190815260200160002060000160028282829054906101000a900461ffff160192506101000a81548161ffff021916908361ffff16021790555080600160008573ffffffffffffffffffffffffffffffffffffffff1673ffffffffffffffffffffffffffffffffffffffff16815260200190815260200160002060000160028282829054906101000a900461ffff160392506101000a81548161ffff021916908361ffff16021790555081600160008573ffffffffffffffffffffffffffffffffffffffff1673ffffffffffffffffffffffffffffffffffffffff16815260200190815260200160002060000160068282829054906101000a900463ffffffff160192506101000a81548163ffffffff021916908363ffffffff16021790555081600260003373ffffffffffffffffffffffffffffffffffffffff1673ffffffffffffffffffffffffffffffffffffffff168152602001908152602001600020600001600c8282829054906101000a900463ffffffff160392506101000a81548163ffffffff021916908363ffffffff1602179055507fe408811386c6fbfd3c9c19b192ec8fb497be593a73e974bb107e4978cc6376ea338486604051808473ffffffffffffffffffffffffffffffffffffffff1673ffffffffffffffffffffffffffffffffffffffff1681526020018373ffffffffffffffffffffffffffffffffffffffff1673ffffffffffffffffffffffffffffffffffffffff1681526020018261ffff168152602001935050505060405180910390a1611675565b83600160008573ffffffffffffffffffffffffffffffffffffffff1673ffffffffffffffffffffffffffffffffffffffff16815260200190815260200160002060000160019054906101000a900460ff1660ff160261ffff1691508163ffffffff16600260003373ffffffffffffffffffffffffffffffffffffffff1673ffffffffffffffffffffffffffffffffffffffff168152602001908152602001600020600001600c9054906101000a900463ffffffff1663ffffffff161015151561140557600080fd5b83600260003373ffffffffffffffffffffffffffffffffffffffff1673ffffffffffffffffffffffffffffffffffffffff16815260200190815260200160002060000160028282829054906101000a900461ffff160192506101000a81548161ffff021916908361ffff16021790555083600160008573ffffffffffffffffffffffffffffffffffffffff1673ffffffffffffffffffffffffffffffffffffffff16815260200190815260200160002060000160028282829054906101000a900461ffff160392506101000a81548161ffff021916908361ffff16021790555081600260003373ffffffffffffffffffffffffffffffffffffffff1673ffffffffffffffffffffffffffffffffffffffff168152602001908152602001600020600001600c8282829054906101000a900463ffffffff160392506101000a81548163ffffffff021916908363ffffffff16021790555081600160008573ffffffffffffffffffffffffffffffffffffffff1673ffffffffffffffffffffffffffffffffffffffff16815260200190815260200160002060000160068282829054906101000a900463ffffffff160192506101000a81548163ffffffff021916908363ffffffff1602179055507fe408811386c6fbfd3c9c19b192ec8fb497be593a73e974bb107e4978cc6376ea338486604051808473ffffffffffffffffffffffffffffffffffffffff1673ffffffffffffffffffffffffffffffffffffffff1681526020018373ffffffffffffffffffffffffffffffffffffffff1673ffffffffffffffffffffffffffffffffffffffff1681526020018261ffff168152602001935050505060405180910390a15b5b50505050565b60006001600360008473ffffffffffffffffffffffffffffffffffffffff1673ffffffffffffffffffffffffffffffffffffffff16815260200190815260200160002060009054906101000a900460ff1660ff16141561172d576000808373ffffffffffffffffffffffffffffffffffffffff1673ffffffffffffffffffffffffffffffffffffffff16815260200190815260200160002060000160019054906101000a900461ffff169050611831565b6002600360008473ffffffffffffffffffffffffffffffffffffffff1673ffffffffffffffffffffffffffffffffffffffff16815260200190815260200160002060009054906101000a900460ff1660ff1614156117dd57600160008373ffffffffffffffffffffffffffffffffffffffff1673ffffffffffffffffffffffffffffffffffffffff16815260200190815260200160002060000160029054906101000a900461ffff169050611831565b600260008373ffffffffffffffffffffffffffffffffffffffff1673ffffffffffffffffffffffffffffffffffffffff16815260200190815260200160002060000160029054906101000a900461ffff1690505b919050565b60006001600360003373ffffffffffffffffffffffffffffffffffffffff1673ffffffffffffffffffffffffffffffffffffffff16815260200190815260200160002060009054906101000a900460ff1660ff1614806118e4575060038060003373ffffffffffffffffffffffffffffffffffffffff1673ffffffffffffffffffffffffffffffffffffffff16815260200190815260200160002060009054906101000a900460ff1660ff16145b15156118ef57600080fd5b6001600360003373ffffffffffffffffffffffffffffffffffffffff1673ffffffffffffffffffffffffffffffffffffffff16815260200190815260200160002060009054906101000a900460ff1660ff161415611c9d576000803373ffffffffffffffffffffffffffffffffffffffff1673ffffffffffffffffffffffffffffffffffffffff16815260200190815260200160002060000160079054906101000a900461ffff1661ffff168261ffff16111515156119ad57600080fd5b6000803373ffffffffffffffffffffffffffffffffffffffff1673ffffffffffffffffffffffffffffffffffffffff16815260200190815260200160002060000160019054906101000a900461ffff166000803373ffffffffffffffffffffffffffffffffffffffff1673ffffffffffffffffffffffffffffffffffffffff16815260200190815260200160002060000160059054906101000a900461ffff160390508161ffff168161ffff161015611b7e57806000803373ffffffffffffffffffffffffffffffffffffffff1673ffffffffffffffffffffffffffffffffffffffff16815260200190815260200160002060000160018282829054906101000a900461ffff160192506101000a81548161ffff021916908361ffff160217905550806000803373ffffffffffffffffffffffffffffffffffffffff1673ffffffffffffffffffffffffffffffffffffffff16815260200190815260200160002060000160038282829054906101000a900461ffff160192506101000a81548161ffff021916908361ffff1602179055507fd87c61093ac5311e1a1d9686628a78a6bf04f05beb7db1961333eb537d9e390682604051808261ffff16815260200191505060405180910390a1611c98565b816000803373ffffffffffffffffffffffffffffffffffffffff1673ffffffffffffffffffffffffffffffffffffffff16815260200190815260200160002060000160018282829054906101000a900461ffff160192506101000a81548161ffff021916908361ffff160217905550816000803373ffffffffffffffffffffffffffffffffffffffff1673ffffffffffffffffffffffffffffffffffffffff16815260200190815260200160002060000160038282829054906101000a900461ffff160192506101000a81548161ffff021916908361ffff1602179055507fd87c61093ac5311e1a1d9686628a78a6bf04f05beb7db1961333eb537d9e390682604051808261ffff16815260200191505060405180910390a15b611ff6565b600260003373ffffffffffffffffffffffffffffffffffffffff1673ffffffffffffffffffffffffffffffffffffffff16815260200190815260200160002060000160049054906101000a900461ffff1661ffff168261ffff1611151515611d0457600080fd5b600260003373ffffffffffffffffffffffffffffffffffffffff1673ffffffffffffffffffffffffffffffffffffffff16815260200190815260200160002060000160029054906101000a900461ffff16600260003373ffffffffffffffffffffffffffffffffffffffff1673ffffffffffffffffffffffffffffffffffffffff168152602001908152602001600020600001600a9054906101000a900461ffff160390508161ffff168161ffff161015611ed95780600260003373ffffffffffffffffffffffffffffffffffffffff1673ffffffffffffffffffffffffffffffffffffffff16815260200190815260200160002060000160028282829054906101000a900461ffff160192506101000a81548161ffff021916908361ffff16021790555080600260003373ffffffffffffffffffffffffffffffffffffffff1673ffffffffffffffffffffffffffffffffffffffff16815260200190815260200160002060000160068282829054906101000a900461ffff160192506101000a81548161ffff021916908361ffff1602179055507fd87c61093ac5311e1a1d9686628a78a6bf04f05beb7db1961333eb537d9e390682604051808261ffff16815260200191505060405180910390a1611ff5565b81600260003373ffffffffffffffffffffffffffffffffffffffff1673ffffffffffffffffffffffffffffffffffffffff16815260200190815260200160002060000160028282829054906101000a900461ffff160192506101000a81548161ffff021916908361ffff16021790555081600260003373ffffffffffffffffffffffffffffffffffffffff1673ffffffffffffffffffffffffffffffffffffffff16815260200190815260200160002060000160068282829054906101000a900461ffff160192506101000a81548161ffff021916908361ffff1602179055507fd87c61093ac5311e1a1d9686628a78a6bf04f05beb7db1961333eb537d9e390682604051808261ffff16815260200191505060405180910390a15b5b5050565b60036020528060005260406000206000915054906101000a900460ff1681565b60008060006001600360003373ffffffffffffffffffffffffffffffffffffffff1673ffffffffffffffffffffffffffffffffffffffff16815260200190815260200160002060009054906101000a900460ff1660ff161415612173576000803373ffffffffffffffffffffffffffffffffffffffff1673ffffffffffffffffffffffffffffffffffffffff16815260200190815260200160002060000160099054906101000a900463ffffffff166000803373ffffffffffffffffffffffffffffffffffffffff1673ffffffffffffffffffffffffffffffffffffffff16815260200190815260200160002060000160009054906101000a900460ff166000803373ffffffffffffffffffffffffffffffffffffffff1673ffffffffffffffffffffffffffffffffffffffff16815260200190815260200160002060000160019054906101000a900461ffff169250925092506123c5565b6002600360003373ffffffffffffffffffffffffffffffffffffffff1673ffffffffffffffffffffffffffffffffffffffff16815260200190815260200160002060009054906101000a900460ff1660ff1614156122ca57600160003373ffffffffffffffffffffffffffffffffffffffff1673ffffffffffffffffffffffffffffffffffffffff16815260200190815260200160002060000160069054906101000a900463ffffffff16600160003373ffffffffffffffffffffffffffffffffffffffff1673ffffffffffffffffffffffffffffffffffffffff16815260200190815260200160002060000160019054906101000a900460ff16600160003373ffffffffffffffffffffffffffffffffffffffff1673ffffffffffffffffffffffffffffffffffffffff16815260200190815260200160002060000160029054906101000a900461ffff169250925092506123c5565b600260003373ffffffffffffffffffffffffffffffffffffffff1673ffffffffffffffffffffffffffffffffffffffff168152602001908152602001600020600001600c9054906101000a900463ffffffff16600260003373ffffffffffffffffffffffffffffffffffffffff1673ffffffffffffffffffffffffffffffffffffffff16815260200190815260200160002060000160009054906101000a900460ff16600260003373ffffffffffffffffffffffffffffffffffffffff1673ffffffffffffffffffffffffffffffffffffffff16815260200190815260200160002060000160029054906101000a900461ffff169250925092505b909192565b60038060003373ffffffffffffffffffffffffffffffffffffffff1673ffffffffffffffffffffffffffffffffffffffff16815260200190815260200160002060009054906101000a900460ff1660ff1614151561242757600080fd5b80600260003373ffffffffffffffffffffffffffffffffffffffff1673ffffffffffffffffffffffffffffffffffffffff16815260200190815260200160002060000160028282829054906101000a900461ffff160392506101000a81548161ffff021916908361ffff16021790555080600260003373ffffffffffffffffffffffffffffffffffffffff1673ffffffffffffffffffffffffffffffffffffffff16815260200190815260200160002060000160088282829054906101000a900461ffff160192506101000a81548161ffff021916908361ffff16021790555050565b60006001600360008473ffffffffffffffffffffffffffffffffffffffff1673ffffffffffffffffffffffffffffffffffffffff16815260200190815260200160002060009054906101000a900460ff1660ff1614156125bb576000808373ffffffffffffffffffffffffffffffffffffffff1673ffffffffffffffffffffffffffffffffffffffff16815260200190815260200160002060000160059054906101000a900461ffff1690506126bf565b6002600360008473ffffffffffffffffffffffffffffffffffffffff1673ffffffffffffffffffffffffffffffffffffffff16815260200190815260200160002060009054906101000a900460ff1660ff16141561266b57600160008373ffffffffffffffffffffffffffffffffffffffff1673ffffffffffffffffffffffffffffffffffffffff16815260200190815260200160002060000160049054906101000a900461ffff1690506126bf565b600260008373ffffffffffffffffffffffffffffffffffffffff1673ffffffffffffffffffffffffffffffffffffffff168152602001908152602001600020600001600a9054906101000a900461ffff1690505b919050565b6001600360003373ffffffffffffffffffffffffffffffffffffffff1673ffffffffffffffffffffffffffffffffffffffff16815260200190815260200160002060009054906101000a900460ff1660ff16141561279657806000803373ffffffffffffffffffffffffffffffffffffffff1673ffffffffffffffffffffffffffffffffffffffff16815260200190815260200160002060000160098282829054906101000a900463ffffffff160192506101000a81548163ffffffff021916908363ffffffff1602179055506128e1565b6002600360003373ffffffffffffffffffffffffffffffffffffffff1673ffffffffffffffffffffffffffffffffffffffff16815260200190815260200160002060009054906101000a900460ff1660ff1614156128695780600160003373ffffffffffffffffffffffffffffffffffffffff1673ffffffffffffffffffffffffffffffffffffffff16815260200190815260200160002060000160068282829054906101000a900463ffffffff160192506101000a81548163ffffffff021916908363ffffffff1602179055506128e0565b80600260003373ffffffffffffffffffffffffffffffffffffffff1673ffffffffffffffffffffffffffffffffffffffff168152602001908152602001600020600001600c8282829054906101000a900463ffffffff160192506101000a81548163ffffffff021916908363ffffffff1602179055505b5b50565b336000600360008373ffffffffffffffffffffffffffffffffffffffff1673ffffffffffffffffffffffffffffffffffffffff16815260200190815260200160002060009054906101000a900460ff1660ff1614151561294357600080fd5b60a0604051908101604052808660ff1681526020018560ff1681526020018461ffff1681526020018361ffff168152602001600063ffffffff16815250600160003373ffffffffffffffffffffffffffffffffffffffff1673ffffffffffffffffffffffffffffffffffffffff16815260200190815260200160002060008201518160000160006101000a81548160ff021916908360ff16021790555060208201518160000160016101000a81548160ff021916908360ff16021790555060408201518160000160026101000a81548161ffff021916908361ffff16021790555060608201518160000160046101000a81548161ffff021916908361ffff16021790555060808201518160000160066101000a81548163ffffffff021916908363ffffffff1602179055509050506002600360003373ffffffffffffffffffffffffffffffffffffffff1673ffffffffffffffffffffffffffffffffffffffff16815260200190815260200160002060006101000a81548160ff021916908360ff1602179055505050505050565b336000600360008373ffffffffffffffffffffffffffffffffffffffff1673ffffffffffffffffffffffffffffffffffffffff16815260200190815260200160002060009054906101000a900460ff1660ff16141515612b3057600080fd5b610100604051908101604052808960ff1681526020018860ff1681526020018761ffff1681526020018661ffff1681526020018561ffff1681526020018461ffff1681526020018361ffff168152602001600063ffffffff16815250600260003373ffffffffffffffffffffffffffffffffffffffff1673ffffffffffffffffffffffffffffffffffffffff16815260200190815260200160002060008201518160000160006101000a81548160ff021916908360ff16021790555060208201518160000160016101000a81548160ff021916908360ff16021790555060408201518160000160026101000a81548161ffff021916908361ffff16021790555060608201518160000160046101000a81548161ffff021916908361ffff16021790555060808201518160000160066101000a81548161ffff021916908361ffff16021790555060a08201518160000160086101000a81548161ffff021916908361ffff16021790555060c082015181600001600a6101000a81548161ffff021916908361ffff16021790555060e082015181600001600c6101000a81548163ffffffff021916908363ffffffff16021790555090505060038060003373ffffffffffffffffffffffffffffffffffffffff1673ffffffffffffffffffffffffffffffffffffffff16815260200190815260200160002060006101000a81548160ff021916908360ff1602179055505050505050505050565b6000600360003373ffffffffffffffffffffffffffffffffffffffff1673ffffffffffffffffffffffffffffffffffffffff16815260200190815260200160002060009054906101000a900460ff1660ff1614151515612da757600080fd5b6001600360003373ffffffffffffffffffffffffffffffffffffffff1673ffffffffffffffffffffffffffffffffffffffff16815260200190815260200160002060009054906101000a900460ff1660ff161415612e5e57806000803373ffffffffffffffffffffffffffffffffffffffff1673ffffffffffffffffffffffffffffffffffffffff16815260200190815260200160002060000160006101000a81548160ff021916908360ff160217905550612f73565b6002600360003373ffffffffffffffffffffffffffffffffffffffff1673ffffffffffffffffffffffffffffffffffffffff16815260200190815260200160002060009054906101000a900460ff1660ff161415612f165780600160003373ffffffffffffffffffffffffffffffffffffffff1673ffffffffffffffffffffffffffffffffffffffff16815260200190815260200160002060000160016101000a81548160ff021916908360ff160217905550612f72565b80600260003373ffffffffffffffffffffffffffffffffffffffff1673ffffffffffffffffffffffffffffffffffffffff16815260200190815260200160002060000160006101000a81548160ff021916908360ff1602179055505b5b50565b60006001600360008473ffffffffffffffffffffffffffffffffffffffff1673ffffffffffffffffffffffffffffffffffffffff16815260200190815260200160002060009054906101000a900460ff1660ff161415613026576000808373ffffffffffffffffffffffffffffffffffffffff1673ffffffffffffffffffffffffffffffffffffffff16815260200190815260200160002060000160009054906101000a900460ff169050613128565b6002600360008473ffffffffffffffffffffffffffffffffffffffff1673ffffffffffffffffffffffffffffffffffffffff16815260200190815260200160002060009054906101000a900460ff1660ff1614156130d557600160008373ffffffffffffffffffffffffffffffffffffffff1673ffffffffffffffffffffffffffffffffffffffff16815260200190815260200160002060000160019054906101000a900460ff169050613128565b600260008373ffffffffffffffffffffffffffffffffffffffff1673ffffffffffffffffffffffffffffffffffffffff16815260200190815260200160002060000160009054906101000a900460ff1690505b919050565b6000806000600360003373ffffffffffffffffffffffffffffffffffffffff1673ffffffffffffffffffffffffffffffffffffffff16815260200190815260200160002060009054906101000a900460ff1660ff161415151561318f57600080fd5b6001600360003373ffffffffffffffffffffffffffffffffffffffff1673ffffffffffffffffffffffffffffffffffffffff16815260200190815260200160002060009054906101000a900460ff1660ff16141561390f57600160008473ffffffffffffffffffffffffffffffffffffffff1673ffffffffffffffffffffffffffffffffffffffff16815260200190815260200160002060000160029054906101000a900461ffff16600160008573ffffffffffffffffffffffffffffffffffffffff1673ffffffffffffffffffffffffffffffffffffffff16815260200190815260200160002060000160049054906101000a900461ffff160390508361ffff168161ffff1610156135d557806000803373ffffffffffffffffffffffffffffffffffffffff1673ffffffffffffffffffffffffffffffffffffffff16815260200190815260200160002060000160009054906101000a900460ff1660ff160261ffff1691508163ffffffff16600160008573ffffffffffffffffffffffffffffffffffffffff1673ffffffffffffffffffffffffffffffffffffffff16815260200190815260200160002060000160069054906101000a900463ffffffff1663ffffffff161015151561336357600080fd5b80600160008573ffffffffffffffffffffffffffffffffffffffff1673ffffffffffffffffffffffffffffffffffffffff16815260200190815260200160002060000160028282829054906101000a900461ffff160192506101000a81548161ffff021916908361ffff160217905550806000803373ffffffffffffffffffffffffffffffffffffffff1673ffffffffffffffffffffffffffffffffffffffff16815260200190815260200160002060000160018282829054906101000a900461ffff160392506101000a81548161ffff021916908361ffff160217905550816000803373ffffffffffffffffffffffffffffffffffffffff1673ffffffffffffffffffffffffffffffffffffffff16815260200190815260200160002060000160098282829054906101000a900463ffffffff160192506101000a81548163ffffffff021916908363ffffffff16021790555081600160008573ffffffffffffffffffffffffffffffffffffffff1673ffffffffffffffffffffffffffffffffffffffff16815260200190815260200160002060000160068282829054906101000a900463ffffffff160392506101000a81548163ffffffff021916908363ffffffff1602179055507f3c6a815da6437ba0e1fd82b22a00d77d102f0fdae9039dbaab82e0654b5bddce338486604051808473ffffffffffffffffffffffffffffffffffffffff1673ffffffffffffffffffffffffffffffffffffffff1681526020018373ffffffffffffffffffffffffffffffffffffffff1673ffffffffffffffffffffffffffffffffffffffff1681526020018261ffff168152602001935050505060405180910390a161390a565b836000803373ffffffffffffffffffffffffffffffffffffffff1673ffffffffffffffffffffffffffffffffffffffff16815260200190815260200160002060000160009054906101000a900460ff1660ff160261ffff1691508163ffffffff16600160008573ffffffffffffffffffffffffffffffffffffffff1673ffffffffffffffffffffffffffffffffffffffff16815260200190815260200160002060000160069054906101000a900463ffffffff1663ffffffff161015151561369c57600080fd5b83600160008573ffffffffffffffffffffffffffffffffffffffff1673ffffffffffffffffffffffffffffffffffffffff16815260200190815260200160002060000160028282829054906101000a900461ffff160192506101000a81548161ffff021916908361ffff160217905550836000803373ffffffffffffffffffffffffffffffffffffffff1673ffffffffffffffffffffffffffffffffffffffff16815260200190815260200160002060000160018282829054906101000a900461ffff160392506101000a81548161ffff021916908361ffff16021790555081600160008573ffffffffffffffffffffffffffffffffffffffff1673ffffffffffffffffffffffffffffffffffffffff16815260200190815260200160002060000160068282829054906101000a900463ffffffff160392506101000a81548163ffffffff021916908363ffffffff160217905550816000803373ffffffffffffffffffffffffffffffffffffffff1673ffffffffffffffffffffffffffffffffffffffff16815260200190815260200160002060000160098282829054906101000a900463ffffffff160192506101000a81548163ffffffff021916908363ffffffff1602179055507f3c6a815da6437ba0e1fd82b22a00d77d102f0fdae9039dbaab82e0654b5bddce338486604051808473ffffffffffffffffffffffffffffffffffffffff1673ffffffffffffffffffffffffffffffffffffffff1681526020018373ffffffffffffffffffffffffffffffffffffffff1673ffffffffffffffffffffffffffffffffffffffff1681526020018261ffff168152602001935050505060405180910390a15b6147c0565b6002600360003373ffffffffffffffffffffffffffffffffffffffff1673ffffffffffffffffffffffffffffffffffffffff16815260200190815260200160002060009054906101000a900460ff1660ff16141561409557600260008473ffffffffffffffffffffffffffffffffffffffff1673ffffffffffffffffffffffffffffffffffffffff16815260200190815260200160002060000160029054906101000a900461ffff16600260008573ffffffffffffffffffffffffffffffffffffffff1673ffffffffffffffffffffffffffffffffffffffff168152602001908152602001600020600001600a9054906101000a900461ffff160390508361ffff168161ffff161015613d585780600160003373ffffffffffffffffffffffffffffffffffffffff1673ffffffffffffffffffffffffffffffffffffffff16815260200190815260200160002060000160019054906101000a900460ff1660ff160261ffff1691508163ffffffff16600260008573ffffffffffffffffffffffffffffffffffffffff1673ffffffffffffffffffffffffffffffffffffffff168152602001908152602001600020600001600c9054906101000a900463ffffffff1663ffffffff1610151515613ae457600080fd5b80600260008573ffffffffffffffffffffffffffffffffffffffff1673ffffffffffffffffffffffffffffffffffffffff16815260200190815260200160002060000160028282829054906101000a900461ffff160192506101000a81548161ffff021916908361ffff16021790555080600160003373ffffffffffffffffffffffffffffffffffffffff1673ffffffffffffffffffffffffffffffffffffffff16815260200190815260200160002060000160028282829054906101000a900461ffff160392506101000a81548161ffff021916908361ffff16021790555081600160003373ffffffffffffffffffffffffffffffffffffffff1673ffffffffffffffffffffffffffffffffffffffff16815260200190815260200160002060000160068282829054906101000a900463ffffffff160192506101000a81548163ffffffff021916908363ffffffff16021790555081600260008573ffffffffffffffffffffffffffffffffffffffff1673ffffffffffffffffffffffffffffffffffffffff168152602001908152602001600020600001600c8282829054906101000a900463ffffffff160392506101000a81548163ffffffff021916908363ffffffff1602179055507f3c6a815da6437ba0e1fd82b22a00d77d102f0fdae9039dbaab82e0654b5bddce338486604051808473ffffffffffffffffffffffffffffffffffffffff1673ffffffffffffffffffffffffffffffffffffffff1681526020018373ffffffffffffffffffffffffffffffffffffffff1673ffffffffffffffffffffffffffffffffffffffff1681526020018261ffff168152602001935050505060405180910390a1614090565b83600160003373ffffffffffffffffffffffffffffffffffffffff1673ffffffffffffffffffffffffffffffffffffffff16815260200190815260200160002060000160019054906101000a900460ff1660ff160261ffff1691508163ffffffff16600260008573ffffffffffffffffffffffffffffffffffffffff1673ffffffffffffffffffffffffffffffffffffffff168152602001908152602001600020600001600c9054906101000a900463ffffffff1663ffffffff1610151515613e2057600080fd5b83600260008573ffffffffffffffffffffffffffffffffffffffff1673ffffffffffffffffffffffffffffffffffffffff16815260200190815260200160002060000160028282829054906101000a900461ffff160192506101000a81548161ffff021916908361ffff16021790555083600160003373ffffffffffffffffffffffffffffffffffffffff1673ffffffffffffffffffffffffffffffffffffffff16815260200190815260200160002060000160028282829054906101000a900461ffff160392506101000a81548161ffff021916908361ffff16021790555081600260008573ffffffffffffffffffffffffffffffffffffffff1673ffffffffffffffffffffffffffffffffffffffff168152602001908152602001600020600001600c8282829054906101000a900463ffffffff160392506101000a81548163ffffffff021916908363ffffffff16021790555081600160003373ffffffffffffffffffffffffffffffffffffffff1673ffffffffffffffffffffffffffffffffffffffff16815260200190815260200160002060000160068282829054906101000a900463ffffffff160192506101000a81548163ffffffff021916908363ffffffff1602179055507f3c6a815da6437ba0e1fd82b22a00d77d102f0fdae9039dbaab82e0654b5bddce338486604051808473ffffffffffffffffffffffffffffffffffffffff1673ffffffffffffffffffffffffffffffffffffffff1681526020018373ffffffffffffffffffffffffffffffffffffffff1673ffffffffffffffffffffffffffffffffffffffff1681526020018261ffff168152602001935050505060405180910390a15b6147bf565b600260008473ffffffffffffffffffffffffffffffffffffffff1673ffffffffffffffffffffffffffffffffffffffff16815260200190815260200160002060000160029054906101000a900461ffff16600260008573ffffffffffffffffffffffffffffffffffffffff1673ffffffffffffffffffffffffffffffffffffffff168152602001908152602001600020600001600a9054906101000a900461ffff160390508361ffff168161ffff1610156144865780600260003373ffffffffffffffffffffffffffffffffffffffff1673ffffffffffffffffffffffffffffffffffffffff16815260200190815260200160002060000160009054906101000a900460ff1660ff160261ffff1691508163ffffffff16600260008573ffffffffffffffffffffffffffffffffffffffff1673ffffffffffffffffffffffffffffffffffffffff168152602001908152602001600020600001600c9054906101000a900463ffffffff1663ffffffff161015151561421257600080fd5b80600260008573ffffffffffffffffffffffffffffffffffffffff1673ffffffffffffffffffffffffffffffffffffffff16815260200190815260200160002060000160028282829054906101000a900461ffff160192506101000a81548161ffff021916908361ffff16021790555080600260003373ffffffffffffffffffffffffffffffffffffffff1673ffffffffffffffffffffffffffffffffffffffff16815260200190815260200160002060000160028282829054906101000a900461ffff160392506101000a81548161ffff021916908361ffff16021790555081600260003373ffffffffffffffffffffffffffffffffffffffff1673ffffffffffffffffffffffffffffffffffffffff168152602001908152602001600020600001600c8282829054906101000a900463ffffffff160192506101000a81548163ffffffff021916908363ffffffff16021790555081600260008573ffffffffffffffffffffffffffffffffffffffff1673ffffffffffffffffffffffffffffffffffffffff168152602001908152602001600020600001600c8282829054906101000a900463ffffffff160392506101000a81548163ffffffff021916908363ffffffff1602179055507f3c6a815da6437ba0e1fd82b22a00d77d102f0fdae9039dbaab82e0654b5bddce338486604051808473ffffffffffffffffffffffffffffffffffffffff1673ffffffffffffffffffffffffffffffffffffffff1681526020018373ffffffffffffffffffffffffffffffffffffffff1673ffffffffffffffffffffffffffffffffffffffff1681526020018261ffff168152602001935050505060405180910390a16147be565b83600260003373ffffffffffffffffffffffffffffffffffffffff1673ffffffffffffffffffffffffffffffffffffffff16815260200190815260200160002060000160009054906101000a900460ff1660ff160261ffff1691508163ffffffff16600260008573ffffffffffffffffffffffffffffffffffffffff1673ffffffffffffffffffffffffffffffffffffffff168152602001908152602001600020600001600c9054906101000a900463ffffffff1663ffffffff161015151561454e57600080fd5b83600260008573ffffffffffffffffffffffffffffffffffffffff1673ffffffffffffffffffffffffffffffffffffffff16815260200190815260200160002060000160028282829054906101000a900461ffff160192506101000a81548161ffff021916908361ffff16021790555083600260003373ffffffffffffffffffffffffffffffffffffffff1673ffffffffffffffffffffffffffffffffffffffff16815260200190815260200160002060000160028282829054906101000a900461ffff160392506101000a81548161ffff021916908361ffff16021790555081600260008573ffffffffffffffffffffffffffffffffffffffff1673ffffffffffffffffffffffffffffffffffffffff168152602001908152602001600020600001600c8282829054906101000a900463ffffffff160392506101000a81548163ffffffff021916908363ffffffff16021790555081600260003373ffffffffffffffffffffffffffffffffffffffff1673ffffffffffffffffffffffffffffffffffffffff168152602001908152602001600020600001600c8282829054906101000a900463ffffffff160192506101000a81548163ffffffff021916908363ffffffff1602179055507f3c6a815da6437ba0e1fd82b22a00d77d102f0fdae9039dbaab82e0654b5bddce338486604051808473ffffffffffffffffffffffffffffffffffffffff1673ffffffffffffffffffffffffffffffffffffffff1681526020018373ffffffffffffffffffffffffffffffffffffffff1673ffffffffffffffffffffffffffffffffffffffff1681526020018261ffff168152602001935050505060405180910390a15b5b5b50505050565b6000600360003373ffffffffffffffffffffffffffffffffffffffff1673ffffffffffffffffffffffffffffffffffffffff16815260200190815260200160002060009054906101000a900460ff169050905600a165627a7a7230582095e91039fe2f967004dffe99613601ce333c07dd366a0148e84c1e552557cdbf0029",
  "source": "pragma solidity ^0.4.17;\n\ncontract NRG{\n   \n    struct ProducerStruct{\n        uint8 CPU;\n        uint16 energyRemaining;\n        uint16 totalEP;\n        uint16 storageCapacity;\n        uint16 productionCapacity;//Total Energy Produced\n        uint32 MoneyBalance; //Wallet used instead of Metamask amount\n    }\n   \n    struct ProviderStruct{\n        uint8 clusterNumber; //cluster number designated to the provider\n        uint8 CPU;\n        uint16 energyRemaining;\n        uint16 storageCapacity;\n        uint32 MoneyBalance; //Wallet used instead of Metamask amount\n    }\n   \n    struct ConsumerStruct{\n        uint8 CPU;\n        uint8 clusterNumber; //cluster number to identify the provider\n        uint16 energyRemaining;\n        uint16 productionCapacity;\n        uint16 totalEP;\n        uint16 TotalEC; //Total Energy Consumed\n        uint16 storageCapacity;\n        uint32 MoneyBalance; //Wallet used instead of Metamask amount\n       \n    }\n   \n    mapping (address=>ProducerStruct) producer;\n    mapping (address=>ProviderStruct) provider;\n    mapping (address=>ConsumerStruct) consumer;\n    mapping (address=>uint8) public Entity;\n   \n    \n   \n    modifier CheckIfEntityAlreadyRegistered(address _addr){\n        require(Entity[_addr]==0);\n        _;\n    }\n\n    event EnergySent(address from, address to, uint energy);\n    event EnergyDemanded(address from, address to, uint energy);\n    event EnergyProduced(uint energy);\n   \n    function getEntity() public view returns (uint8) {\n        return (Entity[msg.sender]);\n    }\n   \n    //initially setting balance of money as 0\n    function addProducer (uint8 _CPU, uint16 _energyRemaining, uint16 _totalEP, uint16 _storageCapacity, uint16 _productionCapacity ) public CheckIfEntityAlreadyRegistered(msg.sender){\n        producer[msg.sender] = ProducerStruct( _CPU, _energyRemaining, _totalEP, _storageCapacity, _productionCapacity, 0);\n        Entity[msg.sender] = 1;\n    }\n   \n   \n    //initially setting balance of money as 0\n    function addProvider (uint8 _clusterNumber, uint8 _CPU, uint16 _energyRemaining, uint16 _storageCapacity) public CheckIfEntityAlreadyRegistered(msg.sender){\n        provider[msg.sender] = ProviderStruct(_clusterNumber,_CPU,_energyRemaining,_storageCapacity, 0);\n        Entity[msg.sender] = 2;\n    }\n   \n    //initially setting balance of money as 0\n    function addConsumer(uint8 _CPU, uint8 _clusterNumber, uint16 _energyRemaining, uint16 _productionCapacity, uint16 _totalEP, uint16 _TotalEC, uint16 _storageCapacity) public CheckIfEntityAlreadyRegistered(msg.sender){\n        consumer[msg.sender] = ConsumerStruct(_CPU, _clusterNumber, _energyRemaining, _productionCapacity, _totalEP, _TotalEC, _storageCapacity, 0);\n        Entity[msg.sender] = 3;\n    }\n   \n   \n   \n    function setCPU (uint8 _price) public {\n       \n        require(Entity[msg.sender]!=0);\n       \n        if (Entity[msg.sender] == 1){\n            producer[msg.sender].CPU = _price;\n        }else if(Entity[msg.sender] == 2){\n            provider[msg.sender].CPU = _price;\n        }else{\n            consumer[msg.sender].CPU = _price;\n        }\n    }\n   \n    function getCPU (address _addr) public view returns (uint8) {\n       \n        if (Entity[_addr] == 1){\n            return producer[_addr].CPU;\n        }else if(Entity[_addr] == 2){\n            return provider[_addr].CPU;\n        }else{\n            return consumer[_addr].CPU;\n        }\n    }\n\n   \n   \n    function produceEnergy (uint16 _energy) public {\n       \n        require(Entity[msg.sender]==1||Entity[msg.sender]==3);\n        uint16 remaningSpaceInStorage;\n        if(Entity[msg.sender]==1){\n            require(_energy<=producer[msg.sender].productionCapacity);\n            remaningSpaceInStorage = producer[msg.sender].storageCapacity - producer[msg.sender].energyRemaining;\n            if (remaningSpaceInStorage<_energy){\n                producer[msg.sender].energyRemaining += remaningSpaceInStorage;\n                producer[msg.sender].totalEP += remaningSpaceInStorage;\n                EnergyProduced(_energy);\n            }else{\n                producer[msg.sender].energyRemaining += _energy;\n                producer[msg.sender].totalEP += _energy;\n                EnergyProduced(_energy);\n            }\n           \n        }else{\n            require(_energy<=consumer[msg.sender].productionCapacity);\n            remaningSpaceInStorage = consumer[msg.sender].storageCapacity - consumer[msg.sender].energyRemaining;\n            if (remaningSpaceInStorage<_energy){\n                consumer[msg.sender].energyRemaining += remaningSpaceInStorage;\n                consumer[msg.sender].totalEP += remaningSpaceInStorage;\n                EnergyProduced(_energy);\n            }else{\n                consumer[msg.sender].energyRemaining += _energy;\n                consumer[msg.sender].totalEP += _energy;\n                EnergyProduced(_energy);\n            }\n        }\n    }\n\n    function getRemainingEnergy(address _addr) view public returns (uint16){\n       \n        if (Entity[_addr] == 1){\n            return producer[_addr].energyRemaining;\n        }else if(Entity[_addr] == 2){\n            return provider[_addr].energyRemaining;\n        }else{\n            return consumer[_addr].energyRemaining;\n        }\n    }\n\n\n    function getStorageCapacity(address _addr) view public returns (uint16){\n       \n        if (Entity[_addr] == 1){\n            return producer[_addr].storageCapacity;\n        }else if(Entity[_addr] == 2){\n            return provider[_addr].storageCapacity;\n        }else{\n            return consumer[_addr].storageCapacity;\n        }\n    }\n   \n   \n   \n    function addMoneyToAccount(uint32 _amnt) public {\n       \n        if (Entity[msg.sender] == 1){\n            producer[msg.sender].MoneyBalance += _amnt;\n        }else if(Entity[msg.sender] == 2){\n            provider[msg.sender].MoneyBalance += _amnt;\n        }else{\n            consumer[msg.sender].MoneyBalance += _amnt;\n        }\n       \n    }\n   \n    function checkMoneyCPUEnergyBalance() public view returns (uint32, uint8, uint16) {\n        if (Entity[msg.sender] == 1){\n            return (producer[msg.sender].MoneyBalance, producer[msg.sender].CPU, producer[msg.sender].energyRemaining);\n        }else if(Entity[msg.sender] == 2){\n            return (provider[msg.sender].MoneyBalance, provider[msg.sender].CPU, provider[msg.sender].energyRemaining);\n        }else{\n            return (consumer[msg.sender].MoneyBalance, consumer[msg.sender].CPU, consumer[msg.sender].energyRemaining);\n        }\n    }\n   \n   \n   function sendEnergyTo (uint16 _unitsOfEnergyToBeSent, address _addr) public {\n       require(Entity[msg.sender]!=0);\n        uint32 costForEnergy;\n        uint16 remaningSpaceInStorage;\n        if (Entity[msg.sender] == 1){\n           remaningSpaceInStorage = provider[_addr].storageCapacity - provider[_addr].energyRemaining;\n            if (remaningSpaceInStorage<_unitsOfEnergyToBeSent){\n           \n                costForEnergy = producer[msg.sender].CPU * remaningSpaceInStorage;\n                require(provider[_addr].MoneyBalance>= costForEnergy);\n               \n                provider[_addr].energyRemaining += remaningSpaceInStorage;\n                producer[msg.sender].energyRemaining -= remaningSpaceInStorage;\n                producer[msg.sender].MoneyBalance += costForEnergy;\n                provider[_addr].MoneyBalance -= costForEnergy;\n                EnergySent(msg.sender, _addr, _unitsOfEnergyToBeSent);\n               \n            }else{\n               \n                costForEnergy = producer[msg.sender].CPU * _unitsOfEnergyToBeSent;\n                require(provider[_addr].MoneyBalance>= costForEnergy);\n               \n                provider[_addr].energyRemaining += _unitsOfEnergyToBeSent;\n                producer[msg.sender].energyRemaining -= _unitsOfEnergyToBeSent;\n                provider[_addr].MoneyBalance -= costForEnergy;\n                producer[msg.sender].MoneyBalance += costForEnergy;\n                EnergySent(msg.sender, _addr, _unitsOfEnergyToBeSent);\n            }\n        }else if(Entity[msg.sender] == 2){\n            remaningSpaceInStorage = consumer[_addr].storageCapacity - consumer[_addr].energyRemaining;\n            if (remaningSpaceInStorage<_unitsOfEnergyToBeSent){\n               \n                costForEnergy = provider[msg.sender].CPU * remaningSpaceInStorage;\n                require(consumer[_addr].MoneyBalance>= costForEnergy);\n               \n                consumer[_addr].energyRemaining += remaningSpaceInStorage;\n                provider[msg.sender].energyRemaining -= remaningSpaceInStorage;\n                provider[msg.sender].MoneyBalance += costForEnergy;\n                consumer[_addr].MoneyBalance -= costForEnergy;\n                EnergySent(msg.sender, _addr, _unitsOfEnergyToBeSent);\n               \n            }else{\n                costForEnergy = provider[msg.sender].CPU * _unitsOfEnergyToBeSent;\n                require(consumer[_addr].MoneyBalance>= costForEnergy);\n               \n                consumer[_addr].energyRemaining += _unitsOfEnergyToBeSent;\n                provider[msg.sender].energyRemaining -= _unitsOfEnergyToBeSent;\n                consumer[_addr].MoneyBalance -= costForEnergy;\n                provider[msg.sender].MoneyBalance += costForEnergy;\n                EnergySent(msg.sender, _addr, _unitsOfEnergyToBeSent);\n            }\n           \n           \n        }else{\n            remaningSpaceInStorage = consumer[_addr].storageCapacity - consumer[_addr].energyRemaining;\n            if (remaningSpaceInStorage<_unitsOfEnergyToBeSent){\n               \n                costForEnergy = consumer[msg.sender].CPU * remaningSpaceInStorage;\n                require(consumer[_addr].MoneyBalance>= costForEnergy);\n               \n                consumer[_addr].energyRemaining += remaningSpaceInStorage;\n                consumer[msg.sender].energyRemaining -= remaningSpaceInStorage;\n                consumer[msg.sender].MoneyBalance += costForEnergy;\n                consumer[_addr].MoneyBalance -= costForEnergy;\n                EnergySent(msg.sender, _addr, _unitsOfEnergyToBeSent);\n               \n            }else{\n                costForEnergy = consumer[msg.sender].CPU * _unitsOfEnergyToBeSent;\n                require(consumer[_addr].MoneyBalance>= costForEnergy);\n               \n                consumer[_addr].energyRemaining += _unitsOfEnergyToBeSent;\n                consumer[msg.sender].energyRemaining -= _unitsOfEnergyToBeSent;\n                consumer[_addr].MoneyBalance -= costForEnergy;\n                consumer[msg.sender].MoneyBalance += costForEnergy;\n                EnergySent(msg.sender, _addr, _unitsOfEnergyToBeSent);\n            }\n            \n        }\n       \n   }\n   \n    function demandEnergy(uint16 _unitsOfEnergyRequested, address _addr) public {\n       \n        require(Entity[msg.sender]!=0 || Entity[msg.sender] != 1);\n        uint32 costForEnergy;\n        uint16 remaningSpaceInStorage;\n        if (Entity[msg.sender] == 2){\n           remaningSpaceInStorage = provider[msg.sender].storageCapacity - provider[msg.sender].energyRemaining;\n            if (remaningSpaceInStorage<_unitsOfEnergyRequested){\n           \n                costForEnergy = producer[_addr].CPU * remaningSpaceInStorage;\n                require(provider[msg.sender].MoneyBalance>= costForEnergy);\n               \n                provider[msg.sender].energyRemaining += remaningSpaceInStorage;\n                producer[msg.sender].energyRemaining -= remaningSpaceInStorage;\n                producer[_addr].MoneyBalance += costForEnergy;\n                provider[msg.sender].MoneyBalance -= costForEnergy;\n                EnergyDemanded(msg.sender, _addr, _unitsOfEnergyRequested);\n               \n            }else{\n               \n                costForEnergy = producer[_addr].CPU * _unitsOfEnergyRequested;\n                require(provider[msg.sender].MoneyBalance>= costForEnergy);\n               \n                provider[msg.sender].energyRemaining += _unitsOfEnergyRequested;\n                producer[_addr].energyRemaining -= _unitsOfEnergyRequested;\n                provider[msg.sender].MoneyBalance -= costForEnergy;\n                producer[_addr].MoneyBalance += costForEnergy;\n                EnergyDemanded(msg.sender, _addr, _unitsOfEnergyRequested);\n            }\n        }else{\n            remaningSpaceInStorage = consumer[msg.sender].storageCapacity - consumer[msg.sender].energyRemaining;\n            if (remaningSpaceInStorage<_unitsOfEnergyRequested){\n               \n                costForEnergy = provider[_addr].CPU * remaningSpaceInStorage;\n                require(consumer[msg.sender].MoneyBalance>= costForEnergy);\n               \n                consumer[msg.sender].energyRemaining += remaningSpaceInStorage;\n                provider[_addr].energyRemaining -= remaningSpaceInStorage;\n                provider[_addr].MoneyBalance += costForEnergy;\n                consumer[msg.sender].MoneyBalance -= costForEnergy;\n                EnergyDemanded(msg.sender, _addr, _unitsOfEnergyRequested);\n               \n            }else{\n                costForEnergy = provider[_addr].CPU * _unitsOfEnergyRequested;\n                require(consumer[msg.sender].MoneyBalance>= costForEnergy);\n               \n                consumer[msg.sender].energyRemaining += _unitsOfEnergyRequested;\n                provider[_addr].energyRemaining -= _unitsOfEnergyRequested;\n                consumer[msg.sender].MoneyBalance -= costForEnergy;\n                provider[_addr].MoneyBalance += costForEnergy;\n                EnergyDemanded(msg.sender, _addr, _unitsOfEnergyRequested);\n            }\n           \n           \n        }\n       \n    }\n   \n    function consumeEnergy (uint16 _uintsOfEnergyConsumed) public {\n        require(Entity[msg.sender]==3);\n        consumer[msg.sender].energyRemaining -= _uintsOfEnergyConsumed;\n        consumer[msg.sender].TotalEC += _uintsOfEnergyConsumed;\n    }\n   \n   \n}\n\n",
  "sourcePath": "C:\\Users\\RiaD\\Desktop\\Parthit-Project-Prov-Prod-Entt0\\contracts\\NRG.sol",
  "compiler": {
    "name": "solc",
    "version": "0.4.18+commit.9cf6e910.Emscripten.clang"
  },
  "schemaVersion": "1.0.1",
  "updatedAt": "2020-05-12T12:01:41.816Z"
}